:100000000C94440C0C94840C0C94840C0C94840C70
:100010000C94840C0C94840C0C94840C0C94840C20
:100020000C94840C0C94840C0C94840C0C94840C10
:100030000C94840C0C94840C0C94840C0C94840C00
:100040000C94840C0C9457610C94840C0C94840CC8
:100050000C94840C0C94445C0C94840C0C942E5BD7
:100060000C94840C0C94A0610C9496610C94840CF8
:100070000C94840C0C94840C0C94840C0C94840CC0
:100080000C94840C0C94840C0C94840C0C94840CB0
:100090000C94840C0C94840C0C94840C0C94840CA0
:1000A0000C94840C0C94840C0C94840C0C94840C90
:1000B0000C94840C0C94840C0C94840C0C94840C80
:1000C0000C94840C0C94840C0C94840C0C94840C70
:1000D0000C94840C0C94840C0C94840C0C94840C60
:1000E0000C94840C084AD73B3BCE016E84BCBFFD08
:1000F000C12F3D6C74319ABD56833DDA3D00C77FF8
:1001000011BED9E4BB4C3E916BAAAABE0000008090
:100110003F05A84CCDB2D44EB93836A9020C50B91F
:10012000918688083CA6AAAA2ABE000000803F004B
:100130004E414E494E495459494E46CDCCCC3D0ACC
:10014000D7233C17B7D13877CC2B329595E6241FAF
:10015000B14F0A000020410000C84200401C462068
:10016000BCBE4CCA1B0E5AAEC59D7400407A10F33B
:100170005A00A0724E18090010A5D4E80000E876D5
:1001800048170000E40B54020000CA9A3B0000002C
:10019000E1F505000080969800000040420F000045
:1001A00000A08601000000102700000000E8030006
:1001B0000000006400000000000A000000000001D0
:1001C00000000000002C76D888DC674F0823DFC1D0
:1001D000DFAE59E1B1B796E5E3E453C63AE651998B
:1001E0007696E8E6C28426EB898C9B62ED407C6FB4
:1001F000FCEFBC9C9F40F2BAA56FA5F490055A2A6B
:10020000F75C936B6CF9676DC11BFCE0E40D47FE76
:10021000F520E6B500D0ED902E030094357705006B
:1002200080841E080000204E0A000000C80C3333F2
:1002300033330F986E12831141EF8D2114893BE601
:100240005516CFFEE6DB18D1844B381BF77C1D908A
:100250001DA4BBE424203284725E228100C9F124F3
:10026000ECA1E53D27434F4D4D554E49434154497F
:100270004F4E0044525952554E004552524F525320
:1002800000494E464F004543484F006563686F3A4A
:10029000004572726F723A0020440020204D3230C7
:1002A00030205300202844697361626C6564293AE8
:1002B0000046696C616D656E742073657474696E57
:1002C00067730020204D3230312058004D61782076
:1002D000416363656C65726174696F6E2028756E29
:1002E0006974732F7332290020204D323033205827
:1002F000004D6178206665656472617465732028BD
:10030000756E6974732F73290020520020204D32BE
:100310003034205000416363656C65726174696FAD
:100320006E2028756E6974732F7332292028503C13
:100330007072696E742D616363656C3E20523C720D
:100340006574726163742D616363656C3E20543C17
:1003500074726176656C2D616363656C3E29002063
:100360004A0020540020530020204D3230352042D6
:1003700000416476616E6365642028423C6D696E5D
:100380005F7365676D656E745F74696D655F7573C6
:100390003E20533C6D696E5F66656564726174658D
:1003A0003E20543C6D696E5F74726176656C5F6669
:1003B000656564726174653E204A3C6A756E635F70
:1003C0006465763E290020440020490020204D33FA
:1003D0003031205000486F74656E642050494400ED
:1003E00020496E76616C6964206578747275646505
:1003F00072200020204D323036205800486F6D6545
:10040000206F6666736574004361703A0020746FF4
:100410006F206C6F6E6720657874727573696F6E8C
:100420002070726576656E7465640A0020636F6C77
:100430006420657874727573696F6E20707265766A
:10044000656E7465640A0020573A0020573A006FC1
:1004500070656E00545249474745524544003A2062
:10046000007A5F6D696E00795F6D696E00785F6D0F
:10047000696E005265706F7274696E6720656E6494
:1004800073746F70207374617475730A00576172AE
:100490006E696E673A20486F6D696E672042756DB0
:1004A000702044697669736F72203C20310A000223
:1004B0000204000048430000484300004843000095
:1004C000A0400000A04000000040000048430000A1
:1004D0004843000048430000000000000000000006
:1004E000000048617264636F6465642044656661FE
:1004F000756C742053657474696E6773204C6F61FA
:100500006465640000009643000096430000A0402C
:100510000000C8410000A0420000A0420000C84303
:100520000000FA43B80B0000B80B000064000000A4
:100530001027000020286D6D290020204D3134390E
:100540002043203B20556E69747320696E204365FB
:100550006C736975730A0054656D706572617475AA
:10056000726520556E697473002020473231203B3C
:10057000004C696E65617220556E6974730024F4D5
:10058000D43050C38D20C3A24117828B7011127AD0
:10059000900D826CDA0AA861E108C75866076151BC
:1005A00042061F4B5E05C145A6041B411204093DCE
:1005B0009703723931034136DB0266339202D4303D
:1005C0005302812E1D02642CEE01762AC501B1284A
:1005D000A101102781018F2564012B244A01E1220A
:1005E0003401AD2120018D200C01811FFC00851EEE
:1005F000ED00981DDF00B91CD200E71BC700201BCF
:10060000BB00651AB200B319A9000A19A0006A1844
:100610009800D217920040178A00B616840032164E
:100620007E00B41579003B157400C7146F00581490
:100630006A00EE1366008813620026135E00C8127B
:100640005B006D12570016125500C1115100701158
:100650004E0022114C00D61049008D104600471064
:10066000450002104200C00F4000800F3E00420FC4
:100670003C00060F3A00CC0E3900930E37005C0E9A
:100680003500270E3400F30D3200C10D3100900DFE
:100690002F00610D2F00320D2D00050D2C00D90CFF
:1006A0002A00AF0C2A00850C28005D0C2800350CB0
:1006B00027000E0C2500E90B2500C40B2400A00B1D
:1006C00023007D0B22005B0B21003A0B2100190B4C
:1006D0002000F90A1F00DA0A1F00BB0A1E009D0A4B
:1006E0001D00800A1C00640A1C00480A1C002C0A19
:1006F0001B00110A1A00F7091A00DD091900C409C4
:100700001900AB091800930918007B091700640948
:1007100017004D09170036091600200915000B09AE
:100720001500F6081500E1081500CC081400B808FB
:100730001400A4081300910813007E0813006B082E
:100740001200590812004708120035081200230849
:1007500011001208110001081000F1071100E00754
:100760001000D0071000C0070F00B1071000A1074C
:100770000F0092070F0083070F0074070E00660733
:100780000E0058070E004A070E003C070E002E0709
:100790000D0021070D0014070D0007070D00FA06D4
:1007A0000D00ED060C00E1060D00D4060C00C80695
:1007B0000C00BC060C00B0060B00A5060C00990648
:1007C0000B008E060B0083060B0078060B006D06EF
:1007D0000B0062060B0057060A004D060A0043068E
:1007E0000B0038060A002E060A00240609001B0624
:1007F0000A0011060A0007060900FE050A00F405B2
:100800000900EB050900E2050900D9050900D0053A
:100810000900C7050800BF050900B6050900AD05B8
:100820000800A50508009D050800950509008C0530
:100830000800840508007C050700750508006D05A3
:100840000800650507005E050800560507004F050E
:100850000800470507004005070039050700320575
:1008600007002B050700240507001D0507001605D6
:1008700007000F0506000905070002050600FC0435
:100880000700F5040600EF040700E8040600E20490
:100890000600DC040600D6040600D0040700C904E4
:1008A0000500C4040600BE040600B8040600B20435
:1008B0000600AC040600A6040500A10406009B0483
:1008C000050096040600900405008B0406008504CC
:1008D0000500800405007B04050076040600700412
:1008E00005006B04050066040500610405005C0456
:1008F000050057040500520405004D040500480496
:100900000400440405003F0405003A0404003604D2
:100910000500310405002C0404002804050023040C
:1009200004001F0405001A04040016040400120445
:1009300005000D040400090404000504040001047A
:100940000500FC030400F8030400F4030400F003B2
:100950000400EC030400E8030400E4030400E003E3
:100960000400DC030400D8030400D4030300D10313
:100970000400CD030400C9030400C5030400000003
:100980000000000000000000000000000000000067
:10099000000000000000D1036D6403570D0347C63B
:1009A000023B8B023259022B2E0225090221E8015B
:1009B0001CCC011AB201179B011487011374011199
:1009C00063010F54010E46010D39010D2C010B215D
:1009D000010A17010A0D0109040108FC0008F400CE
:1009E00007ED0007E60007DF0006D90006D3000583
:1009F000CE0006C80005C30004BF0005BA0004B657
:100A00000004B20004AE0004AA0004A60003A30080
:100A1000049F00039C0003990003960003930002C7
:100A20009100038E00028C0003890002870003847A
:100A300000028200028000027E00027C00027A0036
:100A40000278000276000175000273000271000155
:100A50007000026E00016D00026B00016A00026806
:100A6000000167000265000164000163000162008B
:100A7000026000015F00015E00015D00015C000199
:100A80005B00015A0001590001580001570001564E
:100A900000015500015400015300015200015100B2
:100AA000005100015000014F00014E00014D0000B7
:100AB0004D00014C00014B00014A00004A00014971
:100AC00000014800004800014700014600004600C0
:100AD00001450000450001440001430000430001BE
:100AE000420000420001410000410001400000407E
:100AF00000013F00003F00013E00003E00013D00BC
:100B0000003D00013C00003C00013B00003B0001B7
:100B10003A00003A0001390000390000390001387C
:100B200000003800013700003700003700013600B0
:100B300000360000360001350000350001340000A9
:100B40003400003400013300003300003300013270
:100B5000000032000032000131000031000031009D
:100B6000003100013000003000003000012F000093
:100B70002F00002F00002F00012E00002E00002E5D
:100B800000012D00002D00002D00002D00012C0083
:100B9000002C00002C00002C00012B00002B00007A
:100BA0002B00002B00012A00002A00002A00002A46
:100BB00000002A0001290000290000290000290066
:100BC000012800002800002800002800002800015B
:100BD000270000270000270000270000270001262B
:100BE0000000260000260000260000260000260047
:100BF000012500002500002500002500002500003B
:100C0000250001240000240000240000240000240A
:100C10000000240001230000230000230000230023
:100C20000023000023000122000022000022000017
:100C300022000022000022000022000121000021E9
:100C400000002100002100002100002100002100FF
:100C500001200000200000200000200000200000F3
:100C60002000002000002000011F00001F00001FC6
:100C700000001F00001F00001F00001F0000204395
:100C80006F756E7420583A004500626564002C2030
:100C900073797374656D2073746F7070656421204F
:100CA0004865617465725F49443A20004572723A42
:100CB000204D415854454D50004D415854454D50DC
:100CC00020747269676765726564004572723A20C4
:100CD0004D494E54454D50004D494E54454D5020C0
:100CE00074726967676572656400202F0020403A5E
:100CF000002001400130013B01400136016001311B
:100D00000170012C0190012701B0012201C0011DD9
:100D100001F00118011002130130020E01600209F6
:100D20000190020401C002FF000003FA004003F535
:100D3000008003F000D003EB002004E6007004E123
:100D400000E004DC004005D700C005D2004006CD1D
:100D500000D006C8008007C3003008BE00F008B904
:100D600000C009B400B00AAF00B00BAA00D00CA5B7
:100D700000000EA000500F9B00C010960050129172
:100D80000000148C00C0158700B0178200B0197DD8
:100D900000D01B7800001E730040206E0090226976
:100DA00000F024640040275F0090295A00E02B5592
:100DB00000102E500020304B0010324600E033412E
:100DC0000090353C001037370070383200A0392DC4
:100DD00000B03A2800A03B2300603C1E00103D19E3
:100DE00000903D1400103E0F00703E0A00C03E050A
:100DF00000003F0000403FFBFF803FF6FFC03FF197
:100E0000FF2020506C616E6E657242756666657279
:100E100042797465733A20002046726565204D65FD
:100E20006D6F72793A200020436F6D70696C656454
:100E30003A204A756C20333120323032330A002098
:100E40004C61737420557064617465643A2032306B
:100E500032332D30372D3234207C20417574686F49
:100E6000723A20286E6F6E652C2064656661756C21
:100E70007420636F6E666967290A004D61726C6940
:100E80006E206275676669782D322E312E780A00E1
:100E900020536F6674776172652052657365740ABA
:100EA00000205761746368646F67205265736574CE
:100EB0000A002042726F776E206F7574205265733E
:100EC00065740A002045787465726E616C20526505
:100ED0007365740A00506F77657255700A007374F9
:100EE0006172740A00205A3A0020593A0020583A98
:100EF00000656E6473746F7073206869743A2000C3
:100F000000002200250028002B002E0031003400B4
:100F100002010000050108010B0105050505070593
:100F200008080808020202020A0A08080404040465
:100F30000101010101010101030303030303030391
:100F4000040707070C0C0C0C0C0C0C0C0202020220
:100F500006060606060606060B0B0B0B0B0B0B0B09
:100F600001021020200808102040102040800201BB
:100F700002010804020101020408102040808040A0
:100F8000201008040201800402018040201008049F
:100F9000020108040201010204081020408001023D
:100FA00004081020408000000A0B02090C0D0E08F6
:100FB0000703040100000000000000000000000022
:100FC0000000000000000000000000000000000021
:100FD00000001211100000000000000000000000DE
:100FE0000000000000000000000000006F6B0049DE
:100FF0006E76616C69642065787472756465720AD6
:1010000000454550524F4D2064697361626C6564C0
:101010000A00486F6D65202573204669727374005D
:10102000546F6F206661722066726F6D2072656604
:101030006572656E636520706F696E740A000000EA
:1010400000000000000000000000206661696C657F
:10105000642120426164206865617465722069645E
:101060000A00504944204175746F74756E65002301
:10107000646566696E652044454641554C545F0081
:101080004B6420004B6920004B7020002066696E85
:101090006973686564212050757420746865206CDC
:1010A000617374204B702C204B6920616E64204B5F
:1010B0006420636F6E7374616E74732066726F6DFB
:1010C0002062656C6F7720696E746F20436F6E6667
:1010D000696775726174696F6E2E680A00504944C1
:1010E000204175746F74756E6500206661696C656A
:1010F00064212074696D656F75740A00504944203D
:101100004175746F74756E6500544845524D414C7D
:101110002052554E4157415900546865726D616CBB
:101120002052756E617761790048656174696E67F8
:10113000204661696C65640048656174696E67206A
:101140006661696C656400206661696C6564212074
:1011500054656D706572617475726520746F6F206F
:10116000686967680A00504944204175746F747556
:101170006E6500204B643A2000204B693A20002025
:101180004B703A200020436C6173736963205049AF
:1011900044200A002054753A2000204B753A200064
:1011A000206D61783A2000206D696E3A200020643D
:1011B0003A200020626961733A20002073746172E2
:1011C000740A00504944204175746F74756E65004F
:1011D000206661696C6564212054656D706572617B
:1011E0007475726520746F6F20686967680A0050B3
:1011F0004944204175746F74756E650064697300AD
:10120000656E0043290061626C656420286D696E1B
:101210002074656D702000436F6C64206578747273
:101220007564657320617265200020466C6F773AA3
:101230002000250A0046523A002058004F4646003A
:101240004F4E003B200020204D61783A20002000C6
:1012500020204D696E3A2000203B200020204D3296
:1012600031312053003F4A206F7574206F66207221
:10127000616E67652028302E303120746F20302E4B
:1012800033290A002F2F00434F4E4649475F4558E8
:10129000504F5254004D4541545041434B00434F31
:1012A0004F4C45525F54454D50455241545552455F
:1012B000004348414D4245525F54454D50455241CF
:1012C000545552450045505F424142595354455090
:1012D00000424142595354455050494E47004152F3
:1012E0004353004D4F54494F4E5F4D4F44455300BB
:1012F000544845524D414C5F50524F544543544918
:101300004F4E00455854454E4445445F4D323000E1
:10131000435553544F4D5F4649524D574152455FD7
:1013200055504C4F4144004C464E5F57524954452E
:10133000004C4F4E475F46494C454E414D4500419C
:1013400055544F5245504F52545F53445F5354418C
:101350005455530053445F57524954450052455029
:10136000454154005344434152440050524F4D5064
:10137000545F535550504F525400484F53545F419F
:101380004354494F4E5F434F4D4D414E44530045EA
:101390004D455247454E43595F50415253455200C7
:1013A000434153455F4C494748545F42524947487F
:1013B000544E45535300544F47474C455F4C4947A3
:1013C00048545300534F4654574152455F504F576E
:1013D0004552004255494C445F50455243454E5496
:1013E000004C4556454C494E475F44415441005AD4
:1013F0005F50524F42450052554E4F555400415593
:10140000544F4C4556454C005052494E545F4A4F3C
:10141000420050524F4752455353004155544F528A
:1014200045504F52545F54454D50004155544F5212
:1014300045504F52545F504F5300564F4C554D45F9
:101440005452494300454550524F4D0042494E4188
:1014500052595F46494C455F5452414E534645529E
:101460000053455249414C5F584F4E5F584F4646D6
:10147000004649524D574152455F4E414D453A4D08
:1014800061726C696E206275676669782D322E31E3
:101490002E7820284A756C203331203230323320A8
:1014A00032333A31323A33382920534F555243457B
:1014B0005F434F44455F55524C3A676974687562A3
:1014C0002E636F6D2F4D61726C696E4669726D7718
:1014D0006172652F4D61726C696E2050524F544F8E
:1014E000434F4C5F56455253494F4E3A312E3020B0
:1014F0004D414348494E455F545950453A33442085
:101500005072696E74657220455854525544455264
:101510005F434F554E543A3120555549443A63651F
:101520006465326132662D343161322D343734389E
:101530002D396231322D63353563363266333637B5
:101540006666004D3131332053006F6666008602B7
:1015500081027A027302650244454255473A006FA0
:101560006B002569730025696D2025697300256965
:10157000682025696D202569730025696420256927
:10158000682025696D202569730025697920256902
:1015900064202569682025696D20256973005072D3
:1015A000696E742074696D653A2000486F6D696ECC
:1015B00067204661696C656400FFFFFFDB0FC93F70
:1015C00045BCDA3F8FB30240FCF02740569461409F
:1015D000FE4B9B4084A5D840E0231841346A564115
:1015E000E859974164DBD5416E271742B4B755429D
:1015F000CE1A9742C8AED542B5885A43D40684BFA6
:10160000A65FA7BF7443E0BF10B11AC01C2C58C01E
:10161000E8F697C0B849D6C04E4E17C124D355C17D
:10162000802497C1A0B5D5C1121A17C244AE55C2C5
:10163000781797C26CACD5C267885AC320746F6F95
:10164000206C6F6E6720657874727573696F6E2099
:1016500070726576656E7465640A0020636F6C64F1
:1016600020657874727573696F6E20707265766527
:101670006E7465640A0020453A00205A3A002059E9
:101680003A00583A00204500205A002059002020F6
:101690004D39322058005374657073207065722084
:1016A000756E697400220A00556E6B6E6F776E203E
:1016B000636F6D6D616E643A202200627573793AD2
:1016C0002070617573656420666F7220696E707535
:1016D000740A00627573793A2070617573656420CD
:1016E000666F7220757365720A00627573793A20AD
:1016F00070726F63657373696E670A00746F6F2031
:101700006D75636820696E616374697665207469BC
:101710006D65202D2063757272656E7420636F6D28
:101720006D616E643A20002121204B494C4C2063AE
:10173000617573656420627920004D313132205328
:10174000687574646F776E005072696E746572208C
:1017500073746F707065642064756520746F2065A4
:1017600072726F72732E20466978207468652065E6
:1017700072726F7220616E6420757365204D393905
:101780003920746F20726573746172742E2028542E
:10179000656D70657261747572652069732072651C
:1017A0007365742E205365742069742061667465B6
:1017B000722072657374617274696E67290A004ED3
:1017C0006F20436865636B73756D2077697468205B
:1017D0006C696E65206E756D6265722C204C61734C
:1017E00074204C696E653A2000636865636B73759D
:1017F0006D206D69736D617463682C204C61737426
:10180000204C696E653A20004C696E65204E756DFE
:10181000626572206973206E6F74204C617374204E
:101820004C696E65204E756D6265722B312C204CB3
:10183000617374204C696E653A20004D313130007F
:1018400053657269616C20737461747573206D697E
:10185000736D617463680A006F6B0A00526573658B
:101860006E643A20005072696E7465722068616C13
:101870007465642E206B696C6C28292063616C6C24
:101880006564210A0000CA6111241FBECFEFD1E2B6
:10189000DEBFCDBF00E00CBF84B78093D80B14BE71
:1018A0000FB6F894A89580916000886180936000DD
:1018B000109260000FBE12E0A0E0B2E0E8ECFAEE99
:1018C00000E00BBF02C007900D92A038B107D9F716
:1018D0002BE0A0E8B2E001C01D92A83DB207E1F7FD
:1018E0001CE0C4E4DCE000E006C021970109802F81
:1018F000FE010E942372C334D10780E00807A9F7D4
:101900000E9469620C9462750C940000282F30E0EC
:10191000F901EA55F04F9491F901E05AF04F4491E2
:10192000265E304FF9012491222309F435C0992312
:1019300011F191509231F8F4E92FF0E08827EC553D
:10194000F34F8F4F0C942372D50CD90CB60CCD0CE1
:10195000D10CBB0CDC0CE20CE60CEC0CF00CF40C27
:10196000FA0CFE0CBB0C020D080D0C0D80918000D2
:101970008F7780938000E22FF0E0EE0FFF1FE050A2
:10198000F14FA591B4918FB7F894EC91611148C0D3
:1019900040954E234C938FBF0895809180008F7D9A
:1019A000E8CF80918000877FE4CF84B58F7784BDB6
:1019B000E2CF84B58F7DFBCF8091B0008F7780938D
:1019C000B000D9CF8091B0008F7DF9CF8091900089
:1019D0008F7780939000CFCF809190008F7DF9CF4B
:1019E00080919000877FF5CF8091A0008F778093C2
:1019F000A000C1CF8091A0008F7DF9CF8091A00081
:101A0000877FF5CF809120018F7780932001B3CF1E
:101A1000809120018F7DF9CF80912001877FF5CFC4
:101A20004E2BB8CF3FB7F8948091940390919503D3
:101A3000A0919603B091970326B5A89B05C02F3FB0
:101A400019F00196A11DB11D3FBFBA2FA92F982FE4
:101A50008827BC01CD01620F711D811D911D42E0DF
:101A6000660F771F881F991F4A95D1F708958F92A7
:101A70009F92AF92BF92CF92DF92EF92FF926B0153
:101A80007C01D0DF4B015C01C114D104E104F104FD
:101A9000B1F0C8DF681979098A099B09683E73406B
:101AA0008105910588F321E0C21AD108E108F10807
:101AB00088EE880E83E0981EA11CB11CE5CFFF9034
:101AC000EF90DF90CF90BF90AF909F908F90089550
:101AD0002FB7F894609190037091910380919203D5
:101AE000909193032FBF0895CF93DF93C091220766
:101AF000D0912307209721F160911E0770911F0755
:101B000080912007909121070E9482736E5F7F4F22
:101B100024976C177D07A4F47093440360934303E8
:101B2000D7DF605C73468F4F9F4F60934503709380
:101B300046038093470390934803DF91CF91089524
:101B400010924503109246031092470310924803E7
:101B5000F4CF8F929F92AF92BF92CF92DF92EF928B
:101B6000FF920F931F93CF93DF93B4E4A0E06A2F0B
:101B700070E0AB014B0F511D55954795411119C0B0
:101B8000E3EFFCE065917491072E000C880B990B34
:101B90000E94AA6BDF91CF911F910F91FF90EF9060
:101BA000DF90CF90BF90AF909F908F900895B42F0B
:101BB000E0CFA41711F0B41303C0EFEFFDE0E2CFC4
:101BC0009A0121503109220F331F220F331FF901CF
:101BD000EF50F34FE590F490F901EB50F34FC591BE
:101BE000D4918E159F0518F3A42FC817D90708F4B0
:101BF000BECFF901ED50F34F05911491F901E95071
:101C0000F34FC590D4908E199F09BC0190E080E0FD
:101C10000E94A86B4B015C01B601601B710B072E83
:101C2000000C880B990B0E94AA6B9B01AC01C501AB
:101C3000B4010E94096C4B015C01CE19DF09BE01A1
:101C400090E080E00E94A86B9B01AC01C501B4014B
:101C50000E941A736B017C01B801110F880B990B5C
:101C60000E94AA6B9B01AC01C701B6010E943E72A3
:101C700091CFFC0190E1AEE0B3E001900D929A9516
:101C8000E1F70895BC012091FF02309100034091DB
:101C9000FF02509100032417350731F481E0261725
:101CA000370709F080E008959A01F1CF0F931F9351
:101CB00020910002203148F0F4E0969587957795C1
:101CC0006795FA95D1F722952F70243048F0E2E01D
:101CD0009695879577956795EA95D1F726952695F8
:101CE000223020F09695879577956795611528E0C5
:101CF000720781059105C8F081114BC023E0729FE6
:101D0000A00111244258564FFA0125913491FA014D
:101D10003296E4916E9F412D1124000C411DC901A2
:101D2000841B91091F910F910895613271058105FE
:101D3000910550F160527109810991098B019C0153
:101D400083E036952795179507958A95D1F7000F6B
:101D5000111F000F111F02581A4FF80125913491DD
:101D6000F8013296459154916770649FC001659F58
:101D7000900D112443E0969587954A95E1F7A901C6
:101D8000481B590BCA01CECFEEE7F5E0859194913F
:101D9000C9CF8EE190E0C6CF00C000C08091470758
:101DA00080FF2AC0899A81E08093B302809147071F
:101DB00081FD25C08F9A8FEF8093B40290914707E1
:101DC00080910B0192FB222720F930E092FD809553
:101DD0008270809309018FEF232B09F081E08093BB
:101DE000B5028091470783FF0DC0169A81E080936A
:101DF000B60200C000C0089589988FEFD5CF8F98A4
:101E000081E0DACF16988FEFF2CF8091B202877F10
:101E10008093B202129A81E0089512988091B202E2
:101E200088608093B202089521E030E0082E02C05D
:101E3000220F331F0A94E2F7209530959091B20259
:101E400029232093B202813061F020F0823071F0BA
:101E500081E008955F9A80914B038E7F80934B03BE
:101E6000F7CF8A9A80914B038D7FF8CF809108013C
:101E7000809581708093060180914B038B7FEECF1C
:101E800080E0D2DF81E0D0DF82E0CEDFBECF8130E4
:101E900089F070F0823081F021E030E001C0220F43
:101EA0008A95EAF78091B202822B8093B20208955C
:101EB0005F98F2CF8A98F0CF90910801917090933B
:101EC0000601EACFCF93DF93EC01C43081E0D8075D
:101ED00064F184E091E09093230780932207C4E0AB
:101EE000D1E060911E0770911F07809120079091AB
:101EF00021070E9482736E5F7F4F24976C177D07C6
:101F0000D4F47093440360934303E2DD605C734652
:101F10008F4F9F4F60934503709346038093470311
:101F200090934803DF91CF910895D0932307C093F6
:101F300022072097B1F610924503109246031092A3
:101F4000470310924803EECFCF93DF93809199031C
:101F5000811119C0C0910E02D0910F02219720E08B
:101F600030E040E05FE360911E0770911F078091B1
:101F70002007909121070E943E720E94827321E007
:101F80006C177D070CF020E0822FDF91CF91089530
:101F9000AF92BF92CF92DF92EF92FF920F931F9377
:101FA000CF93DF93C0E2D4E00DEE13E080E3A82EE0
:101FB00084E0B82EC12CD12C7601C394699179911B
:101FC000899199910E94A86B288939894A895B89EE
:101FD0000E94096C0E948773F80161937193819349
:101FE00091938F01C616D706E806F90610F46B0127
:101FF0007C01AC16BD0611F76FEF7FEFCB01A70197
:1020000096010E94B8712093FD033093FE03409324
:10201000FF0350930004DF91CF911F910F91FF9028
:10202000EF90DF90CF90BF90AF900895CF92DF9266
:10203000EF92FF928091AE03882309F457C0C090BD
:10204000AA03D090AB03E090AC03F090AD0320E086
:1020500030E0A901C701B6010E94A46B882309F4EE
:1020600045C020E030E040E05FE3C701B6010E94D8
:10207000096C9B01AC010E94096C2BED3FE049E427
:1020800050E40E94096C9B01AC0160E070E080E8C4
:102090009FE30E941A736B017C01C0929A03D09255
:1020A0009B03E0929C03F0929D036091100270915B
:1020B0001102072E000C880B990B0E94AA6B2AE0D4
:1020C00037ED43E25CE30E94096CA70196010E9490
:1020D000096C6093340270933502809336029093BA
:1020E0003702FF90EF90DF90CF900895C12CD12C54
:1020F00080E8E82E8FE3F82ED0CF80914B079091A7
:102100004C07891B8F7019F490E080E0089590913E
:102110004807992351F0833030F48FEF890F19F07D
:1021200080934807F1CF1092480780914C0727E42D
:10213000829FC00111248F59984FFC01208120FDFE
:10214000E3CF20914C072F5F2F70209349073091E8
:102150004C0720914A07321304C02091490720936D
:102160004A07089590916F0081E091FD02C080E0E0
:10217000089590916F009D7F90936F000895EFE612
:10218000F0E08081826080830895CF93C82FEADFDA
:1021900094E0C99F90011124F901EE5FFC4F225F8A
:1021A0003C4FD9014D915D916D917C91408351835C
:1021B0006283738391E090930103882311F0CF91A0
:1021C000DECFCF910895CF92DF92EF92FF92CF931F
:1021D000DF93C82FC7DF94E0C99FE0011124FE01FF
:1021E000E25FFC4FC080D180E280F3808111C7DFC5
:1021F000CF5FDB4FC701B6010E94AA6B28813981EE
:102200004A815B810E94096CDF91CF91FF90EF9032
:10221000DF90CF900895CF92DF92EF92FF92CF930D
:10222000DF93C82F9FDF94E0C99FE0011124FE01D6
:10223000EE5FFC4FC080D180E280F38081119FDF90
:10224000CF5FDB4FC701B6010E94AA6B288139819D
:102250004A815B810E94096CDF91CF91FF90EF90E2
:10226000DF90CF900895FC017081472F50E0062E3B
:1022700002C0559547950A94E2F740FF14C040917B
:10228000B70350E0062E02C0559547950A94E2F731
:1022900040FF09C021E030E001C0220F6A95EAF753
:1022A0002095272320830895CF93DF931F92CDB7E6
:1022B000DEB787E0898360E0CE010196D4DF61E07C
:1022C000CE010196D0DF62E0CE010196CCDF89819C
:1022D0000F90DF91CF9108958F929F92AF92BF920E
:1022E000CF92DF92EF92FF92CF93DF93209114026F
:1022F000222309F48EC0EC018091B703E82E80FF01
:102300002CC08090160290901702A0901802B090F6
:102310001902288139814A815B81C501B4010E947B
:102320006474181624F488829982AA82BB828090F1
:10233000220290902302A0902402B09025022881CE
:1023400039814A815B81C501B4010E94A46B87FF7A
:1023500004C088829982AA82BB82E1FE2CC0809050
:102360001A0290901B02A0901C02B0901D022C81BA
:102370003D814E815F81C501B4010E9464741816CD
:1023800024F48C829D82AE82BF828090260290903F
:102390002702A0902802B09029022C813D814E8115
:1023A0005F81C501B4010E94A46B87FF04C08C82C9
:1023B0009D82AE82BF82E2FE2CC0C0901E02D090F1
:1023C0001F02E0902002F0902102288539854A857D
:1023D0005B85C701B6010E946474181624F4C88690
:1023E000D986EA86FB86C0902A02D0902B02E09024
:1023F0002C02F0902D02288539854A855B85C7011E
:10240000B6010E94A46B87FF04C0C886D986EA86FD
:10241000FB86DF91CF91FF90EF90DF90CF90BF9040
:10242000AF909F908F900895CF93DF938091A502F6
:10243000659B4AC081608093A502909103018091C1
:10244000A50291FF43C082608093A5028091A502FE
:102450004B9B3EC084608093A502C0914607C0FF9D
:102460000FC08091470780FD0BC08091A50280FFBF
:1024700007C08091D80381608093D80380E085DE17
:10248000C1FF0FC08091470781FD0BC08091A5025D
:1024900081FF07C08091D80382608093D80381E0D8
:1024A00074DEC2FF17C08091470782FD13C0809180
:1024B000A50282FF0FC08091D80384608093D80367
:1024C00082E0DF91CF9161CE8E7FB5CF8D7FBCCF83
:1024D0008B7FC1CFDF91CF9108950F931F93809190
:1024E000B503813011F5F4DA0091A1021091A20236
:1024F0002091A3023091A402601B710B820B930BFD
:1025000028EE33E040E050E00E94B87160919D02F7
:1025100070919E0280919F029091A002620F731FA2
:10252000841F951F1F910F9108956091B1037091C1
:10253000B2038091B3039091B403D6CF1092B50348
:102540001092A1021092A2021092A3021092A40271
:102550001092B1031092B2031092B3031092B4031D
:1025600010929D0210929E0210929F021092A00261
:1025700008958091B5038130D9F08230B9F4ADDF90
:1025800060939D0270939E0280939F029093A0029D
:1025900081E08093B5039CDA6093A1027093A2025C
:1025A0008093A3029093A40281E00895C7DFF0CF47
:1025B00080E008958091B5038150823068F41092D4
:1025C000B50386DA6093B1037093B2038093B303CB
:1025D0009093B40381E0089580E00895209122074C
:1025E00030912307263531053CF42091400330918A
:1025F0004103263031051CF0882319F0BACF611150
:10260000D9CF0895CF93DF93C0914003D091410378
:10261000209721F160913C0370913D0380913E032E
:1026200090913F030E9482736E5F7F4F24976C17D7
:102630007D07A4F4709324036093230349DA605A5E
:1026400075418F4F9F4F60932503709326038093AE
:10265000270390932803DF91CF91089510922503CB
:10266000109226031092270310922803F4CFCF93E1
:10267000DF9310924102CAE1D7E01986188634DA56
:102680001A862C98C8E3D3E019861886BBDF1A8611
:1026900080910201807280930001DF91CF910895B3
:1026A00090E080E008952091D10B833021F425FD46
:1026B0000CC024FD0CC030E0A90102C0559547951F
:1026C0008A95E2F7CA018170089581E0089580E05B
:1026D00008958091BF0384FD0BC08091C10387FDE5
:1026E00007C09091C203937081E019F480E00895CF
:1026F00081E008952FEB280F2A3108F047C0E22F20
:10270000F0E08091BF039091C003A091C103B0910C
:10271000C20304C0B695A795979587952A95D2F7D9
:1027200080FD02C081700895ED57FD4FE081EE23DA
:1027300041F18091870490918804E80FF92FF11DF1
:10274000808190ED980F9A3030F08E3251F4818173
:1027500080538A3098F4F093C403E093C30381E07C
:1027600008958D3211F08B3249F4818190ED980FEC
:102770009A3088F38E3211F48281EACFF0E0E0E003
:10278000EACF1092C4031092C303E9CF80E008950A
:10279000B1DF882341F081E02091C3033091C4036D
:1027A000232B09F480E0089581E00895CF93DF930F
:1027B000EC01E62F660FFF0BEA55F04FE491E25073
:1027C000E13108F0B0C0F0E08827E651FC4E8F4FB1
:1027D0000C942372FB1393149314931493142514E1
:1027E00007144914471427146D146B144B149314D5
:1027F00091148F146F1482E1E8E4F2E0DE0101909D
:102800000D928A95E1F7CE01DF91CF91089581E095
:1028100020EB30E03983288321EB30E03B832A83AF
:102820001D821C8223EB30E03F832E8324EB30E0BB
:10283000398728871B861A861D861C8692E09E870C
:102840008F8781E0888B198ADECF80E0E1CF81E03D
:102850008F5F20E930E03983288321E930E03B8332
:102860002A8322E930E03D832C8328E930E03F834E
:102870002E832AE930E0398728872CE930E03B872E
:102880002A8726E930E03D872C8793E0D8CF80E087
:10289000DFCF80E0DECF81E08F5F20EA30E0398358
:1028A000288321EA30E03B832A8322EA30E03D831B
:1028B0002C8328EA30E03F832E832AEA30E03987F0
:1028C00028872CEA30E03B872A8726EA30E03D87DC
:1028D0002C8794E0B4CF80E0DFCF80E0DECF81E0D2
:1028E0008F5F20E231E03983288321E231E03B83AE
:1028F0002A8322E231E03D832C8328E231E03F83CA
:102900002E832AE231E0398728872CE231E03B87A9
:102910002A8726E231E03D872C8795E090CF80E042
:10292000DFCF80E0DECF82E1FE0111928A95E9F7E8
:102930006ACF9091C00095FFFCCF8093C6000895A8
:102940008F929F92AF92BF92EF92FF921F93CF937D
:10295000DF93CDB7DEB7A0970FB6F894DEBF0FBEFA
:10296000CDBF611571058105910589F120E04AE02F
:10297000842E912CA12CB12C11E0120FEE24E394A3
:10298000F12CEC0EFD1EE20EF11C27FDFA94A501C0
:1029900094010E94B871F7016083B901CA01212F27
:1029A000611571058105910539F7115008F1E1E0D4
:1029B000F0E0EC0FFD1FE10FF11D17FDFA9590817E
:1029C00087E39A3008F480E3890FB3DFEECF80E32A
:1029D000A0960FB6F894DEBF0FBECDBFDF91CF91AA
:1029E0001F91FF90EF90BF90AF909F908F90A1CFDD
:1029F000A0960FB6F894DEBF0FBECDBFDF91CF918A
:102A00001F91FF90EF90BF90AF909F908F9008958F
:102A1000CF92DF92EF92FF926B017C01F7FE0AC02A
:102A2000F094E094D094C094C11CD11CE11CF11C22
:102A30008DE27FDFC701B601FF90EF90DF90CF906E
:102A40007FCF8F929F92AF92BF92CF92DF92EF9201
:102A5000FF926B017C0120E030E0A9010E94A46B91
:102A600087FF06C08DE265DFF7FAF094F7F8F0947F
:102A70002BE037ED43EA5BE3C701B6010E943E72EB
:102A80004B015C010E9487736B017C010E94A86B63
:102A90009B01AC01C501B4010E943D724B015C0178
:102AA000C701B6014DDF8EE244DF20E030E040E2B6
:102AB00051E4C501B4010E94096C6B017C010E94C4
:102AC00087734B015C013CDFC501B4010E94A86B18
:102AD0009B01AC01C701B6010E943D7220E030E0CD
:102AE00040E251E40E94096C0E948773FF90EF90CE
:102AF000DF90CF90BF90AF909F908F9021CFCF93DA
:102B0000DF93EC018991882311F013DFFBCFDF9174
:102B1000CF910895F4DF8DE00CDF8AE00ACFCF93E8
:102B2000DF93EC01FE0184912196882311F001DFEF
:102B3000F9CFDF91CF910895CF92DF92EF92FF927C
:102B40006A017B01ECDFC701B601FF90EF90DF90D7
:102B5000CF9077CF4F925F926F927F928F929F929A
:102B6000AF92BF92CF92DF92EF92FF920F931F939B
:102B7000CF93DF93C8E6D4E04C845D846E847F8479
:102B800004E114E0F80124813581468157816C818C
:102B90007D818E819F810E943E724B015C01F80114
:102BA0002085318542855385688579858A859B8511
:102BB0000E943E726B017C01F801208131814281CB
:102BC0005381688179818A819B810E943E72AB0129
:102BD000BC0182E896E1B0DFB501A4018EE796E181
:102BE000ABDFB701A6018AE796E1A6DFB301A20138
:102BF00086E796E1DF91CF911F910F91FF90EF90C3
:102C0000DF90CF90BF90AF909F908F907F906F900C
:102C10005F904F9091CF81E992E081CF8BE892E075
:102C20007ECFCF93DF93FADFC0918704D0918804E1
:102C300088EA96E174DFCE0162DF85EA96E1DF91F2
:102C4000CF916DCF8AE075CEEC01162F10DD209765
:102C500021F0E4DFCE0163DFF5DFDDDF85E698E11B
:102C60005EDF89EE93E0019739F000C00000EEE5E9
:102C7000F9E03197F0F7F7CFF89489EE93E00197F8
:102C800039F000C00000E6EEF3E03197F0F7F7CF3F
:102C9000EEDC112319F0F4D8A895FECFB6D8FCCFFE
:102CA000CF92DF92EF92FF92CF93DF93EC01C88037
:102CB000D980EA80FB808EE79CE031DFC701B60156
:102CC000A7DECC80DD80EE80FF808EE796E127DFF7
:102CD000C701B6019DDEC884D984EA84FB848AE7F3
:102CE00096E11DDFC701B60193DEDF91CF91FF9022
:102CF000EF90DF90CF90A6CFCF93DF93CDB7DEB725
:102D00002C970FB6F894DEBF0FBECDBF23DF2ADAB3
:102D10009CE0EEE0F3E0DE01119601900D929A95B1
:102D2000E1F781112CDACE010196BADF2C960FB6AD
:102D3000F894DEBF0FBECDBFDF91CF910895CF9243
:102D4000DF92EF92FF92EFE1F6E080818183C09005
:102D5000A106D090A206E090A306F090A4068FEF03
:102D6000C81AD80AE80AF80A8CE598E1D8DEC70143
:102D7000B6014EDE67DF88E598E1FF90EF90DF90C7
:102D8000CF90CDCEEF92FF920F931F93CF93C82F8A
:102D90007B018A0180911D06833060F03CDFC70112
:102DA000BEDE8EE89CE0BBDECF3FA1F48AE89CE06B
:102DB000B6DE48DF5CDCA89580911E03811117C048
:102DC00081E080931E0382E080931D0650DC60E06A
:102DD000C8013ADFC7FDEDCF88E89CE0A0DE6C2F8C
:102DE000CC0F770B880B990B13DE2CDFE2CFCF9142
:102DF0001F910F91FF90EF9008953F924F925F9235
:102E00006F927F928F929F92AF92BF92CF92DF92FA
:102E1000EF92FF920F931F93CF93DF93EC015B012F
:102E20004A01322EFA014080518062807380A301F2
:102E300092016D817E818F8198850E94A46B882389
:102E4000A1F04D825E826F8278867724739420E0B1
:102E500030E0A901F40160817181828193810E9437
:102E6000647418160CF0712C7C828C818230A1F075
:102E7000833009F455C08130A9F52D813E814F8101
:102E80005885F50160817181828193810E94A46BD4
:102E900087FD28C082E08C83F50120813181428149
:102EA00053816D817E818F8198850E943D722B01B7
:102EB0003C010E94680D4B015C01A7019601C30112
:102EC000B2010E94A46B1816FCF09801A8EEB3E0C2
:102ED0000E94E471860E971EA81EB91E88829982F0
:102EE000AA82BB82DF91CF911F910F91FF90EF904B
:102EF000DF90CF90BF90AF909F908F907F906F901A
:102F00005F904F903F90089588819981AA81BB81FD
:102F1000881A990AAA0ABB0AB7FCE4CF83E08C831B
:102F200049E051E169E171E1832DDF91CF911F917A
:102F30000F91FF90EF90DF90CF90BF90AF909F9058
:102F40008F907F906F905F904F903F901BCF4CEA97
:102F50005CE069EB7CE016CFCF93DF93C82FCB0109
:102F6000DEDDC1110AC0CFE4D4E08EE594E0D7DD08
:102F7000CE01D5DDDF91CF9165CEC4E5D4E0F5CFAC
:102F800083E794E0CCDD8CB16DE674E085FB8827A7
:102F900080F9E2DF8091030167E674E08695817035
:102FA000DBDF89B161E674E083FB882780F9D4CF49
:102FB0000F931F93CF938C01C62F88E094E0AFDD71
:102FC000C801ADDD8AE3B5DC80E38C0FB2DCCF91C4
:102FD0001F910F9137CE0F931F93CF93811110C084
:102FE000C42F8B011BDE83E492E199DDC80197DDDC
:102FF000CC2331F08AE39DDCCF911F910F9122CE3B
:10300000CF911F910F910895CF93C82F41E0E3DF37
:10301000C11102C0CF9102CECF910895CF93DF931B
:1030200066E976E1F1DFC0E2D4E04C895D896E8922
:103030007F898EE896E180DD488D598D6A8D7B8D84
:103040008BE896E179DD4C8D5D8D6E8D7F8D88E806
:1030500096E172DD48A159A16AA17BA185E896E1BC
:103060006BDDDF91CF91EECDCF93C82F41E065EDC1
:1030700073E0B1DFC11101C0D1DD40913A07509139
:103080003B0760913C0770913D078CEC93E054DD69
:1030900021E732EB47E25EE360913E0770913F0724
:1030A00080914007909141070E941A73AB01BC01C7
:1030B00089EC93E041DD21E732EB47E25EE360918A
:1030C00042077091430780914407909145070E9401
:1030D000096CAB01BC0186EC93E02EDDCF91B2CD43
:1030E000CF92DF92EF92FF926A017B0118DDC70158
:1030F000B601A7DCFF90EF90DF90CF90A3CDCF93E8
:10310000DF936CEF73E080DFCEE9D3E04881598133
:103110006A817B8183EF93E00FDD4C815D816E815D
:103120007F818BE896E108DD488559856A857B8536
:1031300088E896E1DF91CF91D3CF61E773E064DF58
:103140006091300470913104809132049091330485
:103150000E94A86BAB01BC0188E693E0EDDC4091D6
:10316000600450916104609162047091630485E68B
:1031700093E0E2DC40916404509165046091660440
:103180007091670482E693E0D7DC4091D9035091B7
:10319000DA036091DB037091DC038FE593E0A0CF4D
:1031A000CF93DF9365E173E02FDFC0E2D4E04CA959
:1031B0005DA96EA97FA98CE093E0BEDC48AD59AD56
:1031C0006AAD7BAD89E093E0B7DC4CAD5DAD6EAD33
:1031D0007FAD82E693E0DF91CF9182CFCF93DF93F3
:1031E00061EF72E011DFC0E2D4E04CA15DA16EA1FD
:1031F0007FA188EE92E0A0DC48A559A56AA57BA531
:103200008BE896E199DC4CA55DA56EA57FA588E8C5
:1032100096E192DC48A959A96AA97BA985E896E1BB
:103220008BDCDF91CF910ECDCF93DF936CEC72E00E
:10323000EBDEC0E2D4E0688179818A819B810E94C3
:10324000A86BAB01BC0183EC92E076DC6C817D81E4
:103250008E819F810E94A86BAB01BC018BE896E137
:103260006BDC688579858A859B850E94A86BAB019C
:10327000BC0188E896E160DC6C857D858E859F8544
:103280000E94A86BAB01BC0185E896E155DCDF919B
:10329000CF91D8CC80911F06909120062FEF3FEF61
:1032A000981751F0E92FF0E0E15EF94F228130E00C
:1032B0009F5F9F7790932006C9010895CF92DF9278
:1032C000EF92FF920F931F93CF938C01C62FA3DC35
:1032D000C090A106D090A206E090A306F090A406AC
:1032E000C8011DDCC701B60193DBACDCD3DF01965E
:1032F000E9F78C2F24DD1092A6061092A506CF9137
:103300001F910F91FF90EF90DF90CF900895EF9273
:10331000FF920F931F93CF93DF93CDB7DEB76497E0
:103320000FB6F894DEBF0FBECDBF7C01FB016081FC
:103330007181828193818E010F5F1F4F22E041E0F6
:103340000E944867F70101900020E9F79F01215092
:1033500031092E193F092233310550F442E350E080
:10336000421B530BBC01C701820F931F0E941875AB
:10337000C70164960FB6F894DEBF0FBECDBFDF91D4
:10338000CF911F910F91FF90EF900895CF93DF930E
:10339000EC01FC0101900020E9F7CF0101978C1BA3
:1033A0009D0B8436910540F444E650E0481B590BD0
:1033B0008C0F9D1F0E941875CE01DF91CF9108954B
:1033C0008F929F92AF92BF92CF92DF92EF92FF9235
:1033D0000F931F93CF93DF93B4E4A0E06A2F70E0C4
:1033E000AB014B0F511D55954795411119C0E3EFA6
:1033F000FCE065917491072E000C880B990B0E94DC
:10340000AA6BDF91CF911F910F91FF90EF90DF900A
:10341000CF90BF90AF909F908F900895B42FE0CF42
:103420004A1711F0B41303C0EFEFFDE0E2CF9A01A9
:1034300021503109220F331F220F331FF901EF50A2
:10344000F34FE590F490F901EB50F34FC591D4910F
:103450008E159F0518F3A42FC817D90708F4BECFFF
:10346000F901ED50F34F05911491F901E950F34F33
:10347000C590D4908E199F09BC0190E080E00E9415
:10348000A86B4B015C01B601601B710B072E000C91
:10349000880B990B0E94AA6B9B01AC01C501B4017A
:1034A0000E94096C4B015C01CE19DF09BE0190E05E
:1034B00080E00E94A86B9B01AC01C501B4010E9491
:1034C0001A736B017C01B801110F880B990B0E94D4
:1034D000AA6B9B01AC01C701B6010E943E7291CF5D
:1034E000CF93DF93A89580911C0790911D0768DF0B
:1034F00060931E0770931F07809320079093210706
:1035000080913A0390913B030E94A90D60933C0384
:1035100070933D0380933E0390933F03C0911C073B
:10352000D0911D078091080290910902C817D90710
:1035300010F480E00CDD809122079091230718168B
:1035400019066CF480910602909107028C179D0772
:1035500030F44BEC5CE068ED7CE080E013DC209123
:10356000490330914A0380913A0390913B038217BB
:10357000930710F48FEFEBDC8091400390914103AF
:10358000181619069CF420910402309105028091CE
:103590003A0390913B032817390740F44BEC5CE069
:1035A00068ED7CE08FEFDF91CF91ECCBDF91CF9195
:1035B00008952F923F924F925F926F927F928F92D7
:1035C0009F92AF92BF92CF92DF92EF92FF920F93B2
:1035D0001F93CF93DF93CDB7DEB762970FB6F89402
:1035E000DEBF0FBECDBF80911D0681111AC0A89508
:1035F00062960FB6F894DEBF0FBECDBFDF91CF91BC
:103600001F910F91FF90EF90DF90CF90BF90AF9000
:103610009F908F907F906F905F904F903F902F90F2
:103620000895809133038111E3CF81E080933303C8
:1036300080919803811103C010923303D9CF50DFDA
:10364000109298030E94680D6D837E838F83988704
:1036500060910C0270910D02072E000C880B990BE3
:103660000E94AA6B4B015C01AC019B0160911E079B
:1036700070911F0780912007909121070E94647428
:10368000181614F480E063DC609122077091230720
:10369000072E000C880B990B0E94AA6B69837A8312
:1036A0008B839C83C12CD12C30E8E32E30E4F32EA5
:1036B00008E210E020E0AE014F5F5F4F6EE177E07F
:1036C00088E097E09ADB20911E0730911F07409118
:1036D00020075091210729873A874B875C876091A3
:1036E0000A0270910B02072E000C880B990B0E94A6
:1036F000AA6B9B01AC0169857A858B859C850E94AC
:10370000647418160CF00EC229853A854B855C85C9
:10371000C501B4010E94647418160CF003C28091B4
:103720002B03811109C08AE197E090932A038093CB
:10373000290381E080932B030091290310912A0330
:10374000D80118966D917C91072E000C880B990B6F
:103750000E94AA6B6B017C0120E030E0A9010E946D
:10376000A46B8823C9F0D80114962D913D914D91F9
:103770005C9117972D873E874F87588BC701B601FD
:103780000E943D724B015C0120E030E040E251ECD0
:103790000E94A46B87FF07C081E0F8018387C12CDA
:1037A000D12C7601D5C020E030E040E251E4C501E3
:1037B000B4010E94647418165CF481E0D8011B9671
:1037C0008C93C12CD12C2FE7E22E23E4F22EC0C023
:1037D000F8018385882349F013861486158616869A
:1037E0001786148E158E168E178ED8019496CD904E
:1037F000DD90ED90FC9097971C962D913D914D9109
:103800005C911F97C501B4010E943E72762E672E0F
:10381000582E492E20E030E0A9010E94A46B87FDBC
:103820007CC1A701960160E070E08FE793E40E94FD
:103830001A73698B7A8B382E292E272D362D452D1C
:10384000542D0E94A46B87FF03C079886A882101E8
:10385000872D962DA52DB42DF80184879587A687F1
:10386000B78720A131A142A153A1C501B4010E9493
:10387000096C4B015C01D80154968D929D92AD92DA
:10388000BC925797272D362D452D542DC701B601D3
:103890000E94096C2B013C01F801408E518E628E12
:1038A000738EC48CD58CE68CF78C2D853E854F8528
:1038B000588960897189828993890E943D72D801F3
:1038C00098962D913D914D915C919B970E94096C2A
:1038D000A70196010E943D7220ED3CEC4CE45DE3B3
:1038E0000E94096CA70196010E943E726B017C0147
:1038F000F801C48ED58EE68EF78E2D853E854F85D8
:103900005889208B318B428B538BA3019201C501C7
:10391000B4010E943E72A70196010E943E7220E00F
:1039200030E0A9010E943E726B017C0120E030E092
:10393000A9010E94A46B87FD32CF20E030E04FE761
:1039400053E4C701B6010E94647418160CF439CF11
:10395000C701B6010E94827375956795609324072D
:103960008091450390914603A0914703B09148038D
:103970000097A105B105E1F02D813E814F81588569
:10398000281B390B4A0B5B0BDA01C901B7FD10C0CC
:1039900069857A858B859C850E948273209143037B
:1039A00030914403621773070CF4BEC00E94740D7B
:1039B00020E030E046E153E460913C0370913D0328
:1039C00080913E0390913F030E946474181614F492
:1039D0008FEFBDDA8091250390912603A0912703F4
:1039E000B09128030097A105B10501F12D813E8119
:1039F0004F815885281B390B4A0B5B0BDA01C90133
:103A0000B7FD14C060913C0370913D0380913E036B
:103A100090913F030E9482732091230330912403ED
:103A2000621773070CF487C00E94021380911F0372
:103A300090912003A0912103B09122032D813E811A
:103A40004F815885281B390B4A0B5B0BDA01C901E2
:103A5000B7FDF2CD8D819E81AF81B88588579C4E90
:103A6000AF4FBF4F80931F0390932003A093210378
:103A7000B09322036091400370914103072E000C24
:103A8000880B990B0E94AA6B69837A838B839C8332
:103A9000C12CD12CE12C80E4F82E04E110E02FEFB2
:103AA000AE014F5F5F4F6CE373E081E197E0A5D912
:103AB000C0903C03D0903D03E0903E03F0903F0364
:103AC00020E030E040EA50E4C701B6010E9464748F
:103AD00087FD3AC020E030E046E153E4C701B6017B
:103AE0000E94A46B181684F1609140037091410309
:103AF000072E000C880B990B0E94AA6BA701960158
:103B00000E943D7220E030E0A9010E946474181602
:103B1000CCF48FE7809342038FCD712C612C512C14
:103B2000412C96CE60E01ACF49E251E168E371E1A1
:103B300080E028D93DCF49E251E168E371E18FEFA0
:103B400021D974CF80E0E6CF109242038091020128
:103B500080728093000170CDCF92DF92EF92FF923E
:103B60006B017C0183E3C816D104E104F10468F021
:103B700082E3C81AD108E108F10862E370E080E04E
:103B800090E00E94370D15DDEDCFC701B6010E9410
:103B9000370DFF90EF90DF90CF900BCD8091B80361
:103BA000882329F062E070E080E090E0D5CF0895AE
:103BB000CF93C091AE03811111C030D883E492E15C
:103BC0000E948F1581EB92E00E948F15C11104C0F5
:103BD00084EA92E00E948F1535D820D88BE992E0D4
:103BE0000E948F156C2F70E090E080E00E94081515
:103BF0004091AA035091AB036091AC037091AD0367
:103C000088E992E0CF916CCACF93C82F41E061E779
:103C100075E0E1D9C11101C001D889E695E00E94A3
:103C20008F1584E395E00E948F150CD841E067E57D
:103C300075E08C2FD0D9C11102C00E940E168AE304
:103C400095E00E948F158C2FB3DF8C2FE7D98C2F36
:103C5000C5DA8C2FE9DA8C2FA3DA8C2F6EDA8C2F51
:103C60004EDA8C2FCF9100CA8091C3039091C40388
:103C7000009731F04AE050E070E060E00C94BB68DF
:103C800060E070E0CB010895EFDFCB010895ECDF39
:103C900097FD0AC0E9DF6F3F71058105910509F0C5
:103CA0002CF4E2DF862F089580E008958FEF0895C9
:103CB000CF9384E50E94C813C0E08823F9F0E7DFC2
:103CC000C82F1816DCF40E940E168DE40E94991479
:103CD0006091D5037091D60390E080E00E94A0141B
:103CE00080EE93E00E948F156C2FCC0F770B880B22
:103CF000990B0E9408150E942216CFEF8C2FCF91AE
:103D000008958091C3039091C403892B39F0BFDFDC
:103D100091E0811101C090E0892F089591E0FCCFDE
:103D2000CF93DF93C82FD62F0E94C813882319F092
:103D3000DF91CF91E6CF8C2F0E947A13811101C0C1
:103D40008D2FDF91CF9108954F925F926F927F9266
:103D5000AF92BF92CF92DF92EF92FF920F931F9399
:103D6000CF93DF931092B0031092AF032FE3209311
:103D7000D7031092D6031092D5031092BF0310926E
:103D8000C0031092C1031092C2039C01E901988103
:103D90002F5F3F4F9032D1F39E34C9F4898190ED6B
:103DA000980F9A3020F08D3211F08B3281F42296E8
:103DB0009E012F5F3F4F888180538A3008F46EC088
:103DC0009E012F5F3F4F8881803209F469C0D093F4
:103DD0008804C09387047E012FEFE21AF20A18814B
:103DE0006AE270E0C7010E940675009731F0FC019D
:103DF000319780818032E1F311821D3421F0143536
:103E000011F01734E1F5F70180819FEFE91AF90A03
:103E10008032C9F380538A3090F51093D70390E035
:103E200080E06AE0AF014F5F5F4F689F9001699F3C
:103E3000300D1124C901C0972081820F911D27FDEB
:103E40009A95FA01208120532A3060F39093D6038B
:103E50008093D503DF0131962C912032D9F31D34A4
:103E600059F58E31910539F0E8F48731910519F053
:103E70008C31910509F5B093B003A093AF03DF91A6
:103E8000CF911F910F91FF90EF90DF90CF90BF9057
:103E9000AF907F906F905F904F900895E90188CF29
:103EA000E9018ECF8537910538F08737910518F3F2
:103EB000803AE3E09E07F9F240E050E0BA0130E0DA
:103EC00020E0C12CD12C7601C394FD0131960C91D8
:103ED000002309F48CC00132F1F41D34E1F4803286
:103EE0009105C9F44093BF035093C0036093C1038D
:103EF0007093C203F093B003E093AF0363E270E00A
:103F0000CF010E940675009709F4B9CFFC01108219
:103F1000B6CFDF01DACF01540A3108F063C0DF0108
:103F2000BD90D0E2AD2EBA1499F0A0EDAB0DAA3041
:103F300008F1AEE2BA120EC0A181A053AA30D0F0AF
:103F40002115310519F49F0121503109B12C16C0FA
:103F5000FD01E5CFADE2AA2EBA1419F0ABE2BA1218
:103F6000EFCFA181B0EDBA0FBA3020F0AE3241F7F9
:103F7000A281E3CFBE2EBC1A309741F3A02FB0E050
:103F80002601370104C0440C551C661C771C0A9599
:103F9000D2F74429552966297729AD57BD4FBC92E0
:103FA000A081A154AA3108F4B4CFDF01019100230C
:103FB00009F48BCFD0EDBD2EB00ED9E0AD2EAB14F1
:103FC000A0F7D3EDBD2EB00EAA24A394AB1468F7CE
:103FD0000B3259F3FD0131960C91003209F075CF87
:103FE000DF01F8CF21153105D9F69D01D9CF3093E6
:103FF000B0032093AF034093BF035093C00360937B
:10400000C1037093C2033BCF4F925F926F927F9236
:104010008F929F92AF92BF92CF92DF92EF92FF92D8
:104020000F931F93CF93DF93CDB7DEB72E970FB6C5
:10403000F894DEBF0FBECDBF9E878D875B018A01DE
:10404000DC01D6966D917D918D919C91D9970E94BE
:10405000A86B6B017C01F501208131814281538184
:104060000E94096C0E9404734B015C01D8012D91E0
:104070003D914D915C91C701B6010E94096C0E946F
:1040800004732B013C01C501B4010E9487736D8349
:104090007E838F839887683771058105910540F489
:1040A00008E710E020E030E00D831E832F8338877F
:1040B000C301B2010E94877369837A838B839C83D7
:1040C000683771058105910540F428E730E040E04C
:1040D00050E029833A834B835C83AD85BE859596FA
:1040E0008D909D90AD90BC909897FD01EE5BFF4F39
:1040F00060817181828193816115710581059105CE
:1041000009F4D7C00E94AA6B9B01AC0160E070E08B
:1041100080E89FE30E941A7320E030E040E05FE314
:104120000E94096C2B013C01A7019601C701B60151
:104130000E94096C6B017C0169817A818B819C8171
:104140000E94A86B9B01AC010E94096C9B01AC0111
:10415000C701B6010E943D72A30192010E94096C41
:1041600069877A878B879C876D817E818F8198850F
:104170000E94A86B9B01AC010E94096C9B01AC01E1
:10418000C701B6010E943D72A30192010E94096C11
:104190002B013C010E9404730E9487736B017C0118
:1041A00069857A858B859C850E94B3730E9487738D
:1041B000DC01CB01B701A601480F591F6A1F7B1F05
:1041C00095018401041B150B260B370BB901A801BF
:1041D00077FF35C0C501B4010E94A86BA30192010D
:1041E0000E943E7229853A854B855C850E943D720E
:1041F00020E030E040E05FE30E94096C0E9404731D
:104200006B017C0120E030E0A9010E946474181663
:104210001CF0C12CD12C7601C701B6010E94877316
:104220006B017C018C149D04AE04BF0410F4750175
:104230006401D501C4018C199D09AE09BF09ED8542
:10424000FE85C1A6D2A6E3A6F4A695018401081BAB
:10425000190B2A0B3B0BD901C80185A796A7A7A765
:10426000B0AB0D811E812F81388502AF13AF24AF13
:1042700035AFFE9609811A812B813C810083118321
:10428000228333832E960FB6F894DEBF0FBECDBFC8
:10429000DF91CF911F910F91FF90EF90DF90CF9022
:1042A000BF90AF909F908F907F906F905F904F9056
:1042B000089580E090E0DC01C12CD12C7601BFCFC5
:1042C000EF92FF920F931F93CF93DF93CDB7DEB79B
:1042D000E8970FB6F894DEBF0FBECDBF7A0122E497
:1042E0008F3F09F024E580E289831A828E010F5FF7
:1042F0001F4FF80101900020E9F7CF010197801BC3
:10430000910B8233910510F5F801E80FF91F208316
:104310008133910521F08C0F9D1FFC011282F80161
:1043200001900020E9F7CF010197801B910B8233A8
:10433000910560F42AE3F801E80FF91F2083813327
:10434000910521F08C0F9D1FFC011282FB018081E1
:104350009181A281B3818CAB9DABAEABBFAB82E050
:1043600088AFBE016C5C7F4FC8010E948719F801BD
:1043700001900020E9F7CF010197801B910B823358
:10438000910550F442E350E0481B590B6AEE7CE083
:10439000800F911F0E94106BF70180819181A28193
:1043A000B3818CAB9DABAEABBFAB82E088AFBE013F
:1043B0006C5C7F4FC8010E948719C8010E947F155D
:1043C00062E070E080E090E00E94370DE8960FB662
:1043D000F894DEBF0FBECDBFDF91CF911F910F913B
:1043E000FF90EF900895DF92EF92FF920F931F934B
:1043F000CF93DF93CDB7DEB7C157D1090FB6F8948D
:10440000DEBF0FBECDBFF82E8E010A591F4F60913F
:10441000220770912307072E000C880B990B0E942E
:10442000AA6BF801608371838283938380911E0756
:1044300090911F07A0912007B091210789839A834B
:10444000AB83BC83A801BE016F5F7F4F80E838DF7C
:104450006091400370914103072E000C880B990B6B
:104460000E94AA6BF8016083718382839383809199
:104470003C0390913D03A0913E03B0913F0389839B
:104480009A83AB83BC83A801BE016F5F7F4F8FEF20
:1044900017DFFFEFE0904203FF1641F08F2D9CE203
:1044A0008902F0011124E65EF84FE284F12C44E623
:1044B00050E06DEE7CE0CE0101960E94106BFF9201
:1044C000EF9280E7E82E82E0F82EFF92EF921F93A2
:1044D0000F930E943275B801CE0101960E94C61951
:1044E000D090420363E772E0CE0101960E94C619A4
:1044F0001F92DF92FF92EF921F930F930E943275EB
:10450000B801CE0101960E94C619CE0101960E9403
:104510007F150FB6F894DEBF0FBECDBFCF58DF4F6B
:104520000FB6F894DEBF0FBECDBFDF91CF911F91C4
:104530000F91FF90EF90DF9008952F923F924F924E
:104540005F926F927F928F929F92AF92BF92CF9223
:10455000DF92EF92FF920F931F93CF93DF93CDB72C
:10456000DEB763970FB6F894DEBF0FBECDBF809164
:104570008904843008F069C111E6F12EEE24E39439
:1045800080918904843008F060C180911F06909169
:104590002006891B8F7709F458C10E944A1997FF9A
:1045A0000BC00E940B1680E498E10E948F15809149
:1045B0001F0680932006E4CF8A3019F08D3009F071
:1045C00007C1109207078091A5069091A606FC01ED
:1045D000EF55F94F1682892B19F40E94D91AD0CFC2
:1045E0001092A6061092A50607EA16E0F80181913E
:1045F000803209F449C08E3409F07DC06BE378E164
:10460000C8010E941F6B6C01892B41F06EE470E0C1
:10461000C80104960E940675009709F4C8014AE093
:1046200050E070E060E001960E94BB684B015C01C5
:104630008091A1069091A206A091A306B091A40634
:10464000AC01BD014F5F5F4F6F4F7F4F84169506E2
:10465000A606B706D9F0CD28C9F4AC01BD0141507A
:1046600051096109710984169506A606B70634F04A
:1046700088159905AA05BB050CF082CF60E088E09B
:1046800098E10E945E197CCF8F01B0CF6AE270E0A2
:10469000C8010E9427759C01009709F1982F901B73
:1046A000D12C992339F09150F801E90FF11D808147
:1046B000D826F7CF4AE050E070E060E0C9010196EB
:1046C0000E94BB684D2C512C712C612C6415750512
:1046D0008605970541F060E089EE97E1D2CF60E072
:1046E0008FEB97E1CECF8092A1069092A206A09286
:1046F000A306B092A40680911D068130B9F467E448
:1047000070E0C8010E940675009781F04AE050E011
:1047100070E060E001960E94BB686430710581051D
:10472000910520F488E497E10E948F15F8018081BB
:104730008D34C1F483818233E9F1883359F08033B9
:1047400089F48181843371F48281813359F40E9428
:10475000CF3B08C08281803329F48181813311F4F9
:10476000109243028091A7068B3309F409CF809100
:104770008904843008F004CF80918B048F9DC001A0
:10478000112467EA76E084579B4F0E94117580914F
:104790008B04F89EF0011124E451FB4F10828F5FCF
:1047A000843098F480938B04809189048F5F809388
:1047B0008904E6CE82818133A9F68181813391F625
:1047C00061E08AE397E10E94241610928B04ECCFFB
:1047D00090910707913009F4D3CE9430B0F0945003
:1047E000909307078830C9F48091A5069091A6069A
:1047F000009709F4C5CE01979093A6068093A5066D
:104800008F55994FFC011682BBCE8C35C9F49C5F45
:1048100090930707943009F4B3CE2091A506309108
:10482000A606A9014F5F5F4F5093A6064093A506C9
:104830002F55394FF90186834F3551051CF4A0CE11
:104840008B3381F6E09207079BCE0E94680D6B01C7
:104850007C018091150690911606A0911706B091E3
:1048600018060097A105B10569F14091190650910C
:104870001A0660911B0670911C06840F951FA61FD7
:10488000B71F46015701881A990AAA0ABB0AD5011F
:10489000C401B7FD17C00E940B1687E297E10E9482
:1048A0008F1500918704109188048CEF96E10E9487
:1048B0008F15C8010E947F150E94221660E090E0CB
:1048C00080E081CF90914B0780914C07981741F081
:1048D000C0921906D0921A06E0921B06F0921C06AE
:1048E0008090440290904502A0904602B09047020A
:1048F00081149104A104B10421F0981791F1109250
:1049000014068091100690911106A0911206B091A4
:104910001306A7019601281B390B4A0B5B0BDA0122
:10492000C901B7FDDEC190914B0780914C072091E2
:1049300042029817E9F1E0914C0737E4E39FF00158
:104940001124E955F84F8081281709F470C080932D
:1049500042020E94680D0091420201112CC060E0E9
:1049600020C10E94680D0091190610911A0620912D
:104970001B0630911C06800E911EA21EB31E6819E4
:1049800079098A099B0997FDBACF80911406811194
:10499000B8CF81E08093140680E00E94140F81E07C
:1049A0000E94140F82E00E94140F0E94050FA9CFED
:1049B00080918604C9CF10E061E00F3F110509F432
:1049C000F0C069E0CE0101960E94D6138989882340
:1049D00009F4E2C0E981FA819F85888991119FC01D
:1049E000608190E023E030E0A901481B590B440F9F
:1049F000551F042E01C0220F0A94EAF720952623A2
:104A000062E070E001C0660F4A95EAF7262B20832A
:104A1000FC013396EE0FFF1F41E050E04C0F5D1F8D
:104A2000E40FF51F0190F081E02D11830083809148
:104A30004102882309F448C18090390290903A02DB
:104A4000C4010297209122073091230728173907C4
:104A50000CF43AC110914C07612C712C00E01B8AB8
:104A600080914B07811709F4A0C0812F90E037E4B3
:104A7000A32EA89EF001A99EF00D1124EF59F84F26
:104A8000458956896789708D452B462B472B81F4C4
:104A9000418D528D638D748D452B462B472B41F4F0
:104AA000458D568D678D70A1452B462B472BA1F167
:104AB00027E4B22EB89E9001B99E300D1124A901B1
:104AC0004F59584F5A01FA0161A172A183A194A1D3
:104AD0000E94A86B1B012C01F50165A176A187A19D
:104AE00090A50E94A86B9B01AC01C201B1010E947C
:104AF0001A73F50121813281438154810E94096C2E
:104B00002B015C019301402F5B890E94647418168D
:104B10001CF432010A2DBB8A1F5F1F70A1CF2A89A6
:104B2000211185CFAFEFB0E0923029F0AD85BE8581
:104B30000D90BC91A02D608190E023E030E0A901B0
:104B4000481B590B440F551F042E01C0220F0A9415
:104B5000EAF72095262362E070E001C0660F4A95CF
:104B6000EAF7262B20830396880F991FE1E0F0E0F7
:104B7000EC0FFD1F8E0F9F1FFC01A080B1809801DC
:104B80000E94E4712FEF30E040E050E00E94B871E5
:104B9000F501318320834BCF61E00F37110508F415
:104BA000DECE89E00E94860C42CFB401990C880BBE
:104BB000990B0E94AA6B562EA72EB82E192F209162
:104BC0003D0230913E0240913F0250914002B301BC
:104BD000802F9B890E94096C252D3A2D4B2D512F3A
:104BE0000E943E72462E672E782E092F80903B023F
:104BF00090903C02262F372F482F592F652D7A2D64
:104C00008B2D912F0E9464741816CCF0B401990C6E
:104C1000880B990B0E94AA6B562EA72EB82E192F1F
:104C2000262F372F482F592F642D762D872D902F23
:104C30000E94647418161CF0542C5301102F6090BD
:104C40008204709083048090840490908504252DC4
:104C50003A2D4B2D512FC401B3010E9464741816D4
:104C6000F4F420E037ED43EA5CE3652D7A2D8B2DDB
:104C7000912F0E94096C1B012C0128E431EE4AE7B8
:104C80005FE3C401B3010E94096C9B01AC01C20146
:104C9000B1010E943E72562EA72EB82E192F852DD7
:104CA0009A2DAB2DB12F8093820490938304A0930F
:104CB0008404B0938504652D7A2D8B2D912F0E944D
:104CC0008273CB010E94620FF4E6CF0ED11CE11C6F
:104CD000F11CC0921006D0921106E0921206F092DA
:104CE00013060E94D91A80911D06882309F496C0E4
:104CF0000E94680D6B017C01109138021123F1F0C4
:104D000080917C048823D1F04091780450917904FB
:104D100060917A0470917B0446015701841A950AC8
:104D2000A60AB70AB501A40177FD1AC0833009F4B9
:104D300070C00CF05FC081300CF064C0212F30E0F7
:104D4000A8EEB3E00E94E471C60ED71EE81EF91E5D
:104D5000C0927804D0927904E0927A04F0927B04B5
:104D600080918104882309F459C00E94680D6B0169
:104D70007C0180917D0490917E04A0917F04B0918C
:104D80008004A7019601281B390B4A0B5B0BDA0143
:104D9000C901B7FD43C02091810430E0A8EEB3E023
:104DA0000E94E471C60ED71EE81EF91EC0927D0453
:104DB000D0927E04E0927F04F092800480E013DBC6
:104DC00063960FB6F894DEBF0FBECDBFDF91CF91D3
:104DD0001F910F91FF90EF90DF90CF90BF90AF9019
:104DE0009F908F907F906F905F904F903F902F900B
:104DF0000C942216843009F0A1CF0E940E168BEB82
:104E000096E104C00E940E168AEE96E10E948F156C
:104E100095CF0E940E1683ED96E1F8CF63960FB6FC
:104E2000F894DEBF0FBECDBFDF91CF911F910F91E0
:104E3000FF90EF90DF90CF90BF90AF909F908F90BA
:104E40007F906F905F904F903F902F900895CF93F9
:104E5000DF9380914B0790914C07891B80958F7051
:104E600011F46BDBF6CF80914B078F5F8F70A091B1
:104E70004B0797E4A99FD0011124FD01EF59F84F8A
:104E8000EF0119929A95E9F7908198609083AA585A
:104E9000B84F90E1E1E5F7E001900D929A95E1F7C6
:104EA00020914B0790914C07291303C094E69093EF
:104EB000480780934B07DF91CF910C94BF102F923E
:104EC0003F924F925F926F927F928F929F92AF929A
:104ED000BF92CF92DF92EF92FF920F931F93CF93E7
:104EE000DF93CDB7DEB7C258D1090FB6F894DEBF55
:104EF0000FBECDBF7C018B01AB965FAF4EAFAB97C2
:104F00002091340430913504409136045091370497
:104F1000DC016D917D918D919C910E94096C0E94A4
:104F20007074EA966CAF7DAF8EAF9FAFEA97209119
:104F300038043091390440913A0450913B04F70110
:104F400064817581868197810E94096C0E947074CA
:104F5000EE966CAF7DAF8EAF9FAFEE9720913C0485
:104F600030913D0440913E0450913F04D701189682
:104F70006D917D918D919C911B970E94096C0E946F
:104F80007074C258DF4F688379838A839B83CE57BE
:104F9000D04020914004309141044091420450910E
:104FA0004304F70164857585868597850E94096CA1
:104FB0000E947074A9966CAF7DAF8EAF9FAFA9971A
:104FC0008091130483FF0EC0A9962CAD3DAD4EAD6C
:104FD0005FADA99720935D0730935E0740935F070D
:104FE00050936007D8013C9011962C90119712961F
:104FF000BC91BFAFF801F3812496FFAF2497809155
:105000004B0790914C07891B80958F7011F495DAAE
:10501000F6CF00914B07CE57DF4F0883C258D040E0
:1050200000914B078091110490911204892B11F08B
:105030000C9407378091510790915207A091530724
:10504000B0915407EA968CAC9DACAEACBFACEA977D
:10505000881A990AAA0ABB0A8091550790915607A7
:10506000A0915707B0915807EE962CAD3DAD4EADCF
:105070005FADEE97281B390B4A0B5B0B2FAB38AF9C
:1050800049AF5AAF8091590790915A07A0915B0799
:10509000B0915C07C258DF4F288139814A815B811A
:1050A000CE57D040281B390B4A0B5B0B2BAF3CAFC4
:1050B0004DAF5EAF80915D0790915E07A0915F0755
:1050C000B0916007A996CCACDDACEEACFFACA99773
:1050D000C81AD90AEA0AFB0A09F461C00E94A40F9F
:1050E0008823B9F0A9968CAD9DADAEADBFADA997A3
:1050F00080935D0790935E07A0935F07B09360076E
:105100000E940E168BE596E10E948F15C12CD12CC2
:105110007601C701B6010E94AA6B2091340230913A
:10512000350240913602509137020E94096C2B01E2
:105130003C0120E030E0A9010E94647487FF04C0B4
:1051400077FA709477F8709420E030E048E453E404
:105150006091400470914104809142049091430415
:105160000E94096CA30192010E94A46B87FF17C0E3
:10517000A9962CAD3DAD4EAD5FADA99720935D07CF
:1051800030935E0740935F07509360070E940E16AE
:105190008CE396E10E948F15C12CD12C760110E092
:1051A00081E0181419041A041B040CF080E080FB41
:1051B00010F981E02FA938AD49AD5AAD121613068A
:1051C000140615060CF080E080FB11F981E02BAD90
:1051D0003CAD4DAD5EAD12161306140615060CF06F
:1051E00080E080FB12F981E01C141D041E041F04E2
:1051F0000CF080E080FB13F9C701B6010E94AA6B96
:10520000209134023091350240913602509137029C
:105210000E94096C6B017C0120E030E0A9010E9432
:10522000647487FFBCC3C701B6019058402F50E09B
:105230005CAB4BAB57E4059F90011124D901AF59EA
:10524000B84F2996BFAFAEAF299720E030E040E0DD
:105250005FE30E943E720E9487736D966CAF7DAFD4
:105260008EAF9FAF6D972996EEADFFAD2997108257
:1052700015AB0BAD1CAD2DAD3EAD61960CAF1DAFAA
:105280002EAF3FAF619737FF0DC030952095109539
:1052900001951F4F2F4F3F4F61960CAF1DAF2EAFA3
:1052A0003FAF61972FA938AD49AD5AAD65962CAF88
:1052B0003DAF4EAF5FAF659757FF0DC0509540951E
:1052C000309521953F4F4F4F5F4F65962CAF3DAFC7
:1052D0004EAF5FAF659724013501B7FE07C0442488
:1052E00055243201481859086A087B082996AEAD42
:1052F000BFAD299755964D925D926D927C925897CD
:1053000065960CAD1DAD2EAD3FAD659759960D93CD
:105310001D932D933C935C9761960CAD1DAD2EAD06
:105320003FAD61975D960D931D932D933C939097A0
:10533000C501B4010E94AA6B2091010430910204BE
:1053400040910304509104040E94096C69966CAF6B
:105350007DAF8EAF9FAF699769A37AA38BA39CA300
:105360006FA978AD89AD9AAD0E94AA6B2091050412
:105370003091060440910704509108040E94096C82
:105380002D966CAF7DAF8EAF9FAF2D976DA37EA393
:105390008FA398A76BAD7CAD8DAD9EAD0E94AA6B1F
:1053A0002091090430910A0440910B0450910C049F
:1053B0000E94096C6FAB78AF89AF9AAF69A77AA7E3
:1053C0008BA79CA720910D0430910E0440910F04EF
:1053D00050911004C701B6010E94096C6BAF7CAFFD
:1053E0008DAF9EAF6DA77EA78FA798ABB6E04B168B
:1053F0005104610471040CF0DAC265960CAD1DAD68
:105400002EAD3FAD659706301105210531050CF035
:10541000CEC261962CAD3DAD4EAD5FAD61972630ED
:105420003105410551050CF0C2C220E030E0A90170
:105430000E94647487FFB6C28BAD9CADADADBEADAE
:10544000B05827E40BA91CA9209FF001219FF00D63
:105450001124EF59F84F85879687A787B08B87E48B
:105460000BA91CA9809FF001819FF00D1124EF5919
:10547000F84F6D962CAD3DAD4EAD5FAD6D9721A350
:1054800032A343A354A3458956896789708D018D42
:10549000128D238D348D858D968DA78DB0A18017AB
:1054A0009107A207B30710F4D901C8018417950723
:1054B000A607B70710F4DB01CA016D960CAD1DAD50
:1054C0002EAD3FAD6D9780179107A207B30710F47B
:1054D000D901C80127E40BA91CA9209FF001219F35
:1054E000F00D1124EF59F84F85A396A3A7A3B0A7F9
:1054F0000697A105B10510F40C94EA36EA5BFF4F5C
:10550000809186048083452B462B472B19F080E041
:105510000E94470F87E40BA91CA9809FF001819F7F
:10552000F00D1124EF59F84F818D928DA38DB48D1C
:10553000892B8A2B8B2B19F081E00E94470F87E47F
:105540000BA91CA9809FF001819FF00D1124EF5938
:10555000F84F858D968DA78DB0A1892B8A2B8B2B2B
:1055600019F082E00E94470F6D962CAD3DAD4EAD17
:105570005FAD6D97232B242B252B11F40C94093749
:105580000E940D0FE0906004F090610400916204AD
:10559000109163049701A801632D722D8FAD24969D
:1055A0009FAD24970E94A46B87FD06C0E32CF22CCC
:1055B0000FAD24961FAD249787E44BA95CA9849F67
:1055C000F001859FF00D1124EF59F84F85849684E2
:1055D000A784B088A501940160E070E080E89FE3B3
:1055E0000E941A7361966CAF7DAF8EAF9FAF6197CB
:1055F0009701A8010E94096C6B017C0180914B0707
:1056000090914907891B8F70AC968FAFAC97A7011B
:10561000960160E074E284E799E40E941A730E94A4
:1056200070742B013C01AC968FADAC9782508630E4
:10563000A0F5609130047091310480913204909112
:105640003304641975098609970916161706180692
:1056500019061CF5660F771F881F991FAC960FADB2
:10566000AC97202F30E050E040E00E940772CA0162
:10567000B9010E94AA6B0E948273640D751D861D7C
:10568000971D0E94AA6B9B01AC0160E074E284E765
:1056900099E40E941A736B017C01A7019601C50170
:1056A000B4010E94096CE0966CAF7DAF8EAF9FAFE6
:1056B000E09787E42BA93CA9829F8001839F100D6E
:1056C00011240F59184FE0968CAD9DADAEADBFAD16
:1056D000E097F80181839283A383B48325A136A147
:1056E00047A150A565962CAF3DAF4EAF5FAF659714
:1056F000CA01B9010E94A86BA5966CAF7DAF8EAFB1
:105700009FAFA5979B01AC01C701B6010E94096C30
:105710000E9404730E948773E4966CAF7DAF8EAFD6
:105720009FAFE497F80166AB77AB80AF91AF8E0186
:105730000F5D1F4F6F961FAF0EAF6F9704E414E01D
:10574000E6961FAF0EAFE6978E01035D1F4F1AABB3
:1057500009AB212C312C10E81FAF0FE324960FAFBB
:1057600024976F96AEADBFAD6F972D913D914D9142
:105770005D916F96BFAFAEAF6F97C701B6010E9444
:10578000096C4B015C0120E030E0A9010E946474C7
:1057900087FF04C0B7FAB094B7F8B094E696EEADC0
:1057A000FFADE6974190519061907190E696FFAF02
:1057B000EEAFE697A5019401C301B2010E94A46B6C
:1057C00087FF16C0A5019401C301B2010E941A739C
:1057D0005B018C0191014FAD24965FAD24970E942F
:1057E000A46B87FF05C015010FAF24961FAF249748
:1057F00009A91AA96F962EAD3FAD6F97021713072F
:1058000009F0AFCFA70196016BAD7CAD8DAD9EAD1C
:105810000E94096C6B017C0120E030E0A9010E942C
:10582000647487FF04C0F7FAF094F7F8F09480905E
:10583000500490905104A0905204B0905304A701DA
:105840009601C501B4010E94A46B87FF16C0A70191
:105850009601C501B4010E941A737B018C0191016C
:105860004FAD24965FAD24970E94A46B87FF05C0BF
:1058700017010FAF24961FAF249720E030E040E8D7
:105880005FE3B1018FAD24969FAD24970E94A46B76
:1058900087FF34C087E44BA95CA9849F8001859F62
:1058A000100D11240F59184FE4966CAD7DAD8EADDF
:1058B0009FADE4970E94A86B91014FAD24965FAD18
:1058C00024970E94096C0E948773D801D6966D9325
:1058D0007D938D939C93D99791014FAD24965FADA5
:1058E0002497E0966CAD7DAD8EAD9FADE0970E94A4
:1058F000096CF8016183728383839483A5962CAD30
:105900003DAD4EAD5FADA59761966CAD7DAD8EADF5
:105910009FAD61970E94096CA1966CAF7DAF8EAF71
:105920009FAFA19787E40BA91CA9809FF001819FDD
:10593000F00D1124EF59F84F85889688A788B08C10
:1059400081149104A104B10409F0BEC0818D928D2F
:10595000A38DB48D892B8A2B8B2B09F0B5C0858D37
:10596000968DA78DB0A1892B8A2B8B2B09F0ACC00B
:10597000209158043091590440915A0450915B048D
:10598000A1966CAD7DAD8EAD9FADA1970E94096CC7
:105990000E9404730E9487736B017C0188C1C70158
:1059A000B60144CC8BAD9CADADADBEAD4ACDAB9692
:1059B000AEADBFADAB97CD90DD90ED90FC9020E00B
:1059C00030E0A901C701B6010E94A46B882379F0D9
:1059D00087E40BA91CA9809FF001819FF00D112481
:1059E000EF59F84FC586D686E786F08A38CD20E095
:1059F00030E0A90169966CAD7DAD8EAD9FAD699724
:105A00000E94A46B81112CC020E030E0A9012D96EA
:105A10006CAD7DAD8EAD9FAD2D970E94A46B8111B5
:105A20001FC020E030E0A9016FA978AD89AD9AAD23
:105A30000E94647487FF43C06FA978AD89AD9AADA9
:105A4000905827E40BA91CA9209FF001219FF00D7D
:105A50001124EF59F84F658776878787908BFFCCA5
:105A600069962CAD3DAD4EAD5FAD6997CA01B901E8
:105A70000E94096C6B017C012D962CAD3DAD4EADA5
:105A80005FAD2D97CA01B9010E94096C9B01AC0161
:105A9000C701B6010E943E726B017C012FA938AD8F
:105AA00049AD5AADCA01B9010E94096C9B01AC0114
:105AB000C701B6010E943E720E94AA74C2CF6FA9AC
:105AC00078AD89AD9AADBDCF6D962CAD3DAD4EADE7
:105AD0005FAD6D97232B242B252B09F406C5209150
